{
  "contractName": "Betting",
  "abi": [
    {
      "constant": true,
      "inputs": [
        {
          "name": "",
          "type": "address"
        },
        {
          "name": "",
          "type": "uint256"
        }
      ],
      "name": "matching_bets",
      "outputs": [
        {
          "name": "",
          "type": "uint256"
        }
      ],
      "payable": false,
      "stateMutability": "view",
      "type": "function"
    },
    {
      "constant": true,
      "inputs": [
        {
          "name": "",
          "type": "address"
        }
      ],
      "name": "matched_bet_addresses",
      "outputs": [
        {
          "name": "",
          "type": "address"
        }
      ],
      "payable": false,
      "stateMutability": "view",
      "type": "function"
    },
    {
      "constant": true,
      "inputs": [
        {
          "name": "",
          "type": "uint256"
        }
      ],
      "name": "gameID_to_address",
      "outputs": [
        {
          "name": "",
          "type": "address"
        }
      ],
      "payable": false,
      "stateMutability": "view",
      "type": "function"
    },
    {
      "constant": true,
      "inputs": [],
      "name": "current_query_address",
      "outputs": [
        {
          "name": "",
          "type": "address"
        }
      ],
      "payable": false,
      "stateMutability": "view",
      "type": "function"
    },
    {
      "constant": true,
      "inputs": [],
      "name": "owner",
      "outputs": [
        {
          "name": "",
          "type": "address"
        }
      ],
      "payable": false,
      "stateMutability": "view",
      "type": "function"
    },
    {
      "constant": true,
      "inputs": [
        {
          "name": "",
          "type": "address"
        },
        {
          "name": "",
          "type": "uint256"
        }
      ],
      "name": "address_to_bet",
      "outputs": [
        {
          "name": "",
          "type": "uint256"
        }
      ],
      "payable": false,
      "stateMutability": "view",
      "type": "function"
    },
    {
      "inputs": [],
      "payable": false,
      "stateMutability": "nonpayable",
      "type": "constructor"
    },
    {
      "anonymous": false,
      "inputs": [
        {
          "indexed": false,
          "name": "result",
          "type": "string"
        }
      ],
      "name": "LogResult",
      "type": "event"
    },
    {
      "anonymous": false,
      "inputs": [
        {
          "indexed": false,
          "name": "description",
          "type": "string"
        }
      ],
      "name": "LogNewProvableQuery",
      "type": "event"
    },
    {
      "anonymous": false,
      "inputs": [
        {
          "indexed": false,
          "name": "payout",
          "type": "string"
        }
      ],
      "name": "LogPayout",
      "type": "event"
    },
    {
      "constant": true,
      "inputs": [],
      "name": "get_owner",
      "outputs": [
        {
          "name": "",
          "type": "address"
        }
      ],
      "payable": false,
      "stateMutability": "view",
      "type": "function"
    },
    {
      "constant": true,
      "inputs": [
        {
          "name": "_address",
          "type": "address"
        }
      ],
      "name": "get_matched_bet_addresses",
      "outputs": [
        {
          "name": "",
          "type": "address"
        }
      ],
      "payable": false,
      "stateMutability": "view",
      "type": "function"
    },
    {
      "constant": true,
      "inputs": [
        {
          "name": "_address",
          "type": "address"
        }
      ],
      "name": "get_address_to_bet",
      "outputs": [
        {
          "name": "",
          "type": "uint256[]"
        }
      ],
      "payable": false,
      "stateMutability": "view",
      "type": "function"
    },
    {
      "constant": true,
      "inputs": [
        {
          "name": "_arr",
          "type": "uint256[]"
        }
      ],
      "name": "checkArray",
      "outputs": [
        {
          "name": "",
          "type": "bool"
        }
      ],
      "payable": false,
      "stateMutability": "pure",
      "type": "function"
    },
    {
      "constant": false,
      "inputs": [
        {
          "name": "_bet",
          "type": "uint256[4]"
        }
      ],
      "name": "createBet",
      "outputs": [],
      "payable": true,
      "stateMutability": "payable",
      "type": "function"
    },
    {
      "constant": false,
      "inputs": [],
      "name": "claimWin",
      "outputs": [],
      "payable": false,
      "stateMutability": "nonpayable",
      "type": "function"
    },
    {
      "constant": true,
      "inputs": [],
      "name": "get_addr_to_result",
      "outputs": [
        {
          "name": "",
          "type": "string"
        }
      ],
      "payable": false,
      "stateMutability": "view",
      "type": "function"
    },
    {
      "constant": false,
      "inputs": [
        {
          "name": "myid",
          "type": "bytes32"
        },
        {
          "name": "result",
          "type": "string"
        }
      ],
      "name": "__callback",
      "outputs": [],
      "payable": false,
      "stateMutability": "nonpayable",
      "type": "function"
    },
    {
      "constant": true,
      "inputs": [
        {
          "name": "_address",
          "type": "address"
        }
      ],
      "name": "get_result",
      "outputs": [
        {
          "name": "",
          "type": "string"
        }
      ],
      "payable": false,
      "stateMutability": "view",
      "type": "function"
    },
    {
      "constant": true,
      "inputs": [],
      "name": "get_string_to_address",
      "outputs": [
        {
          "name": "",
          "type": "address"
        }
      ],
      "payable": false,
      "stateMutability": "view",
      "type": "function"
    },
    {
      "constant": false,
      "inputs": [],
      "name": "query",
      "outputs": [],
      "payable": true,
      "stateMutability": "payable",
      "type": "function"
    }
  ],
  "bytecode": "0x608060405234801561001057600080fd5b50600180546001600160a01b0319908116736f485c8bf6fc43ea212e93bbf8ce046c7f1cb47517909155600680549091163317905561221e806100546000396000f3fe6080604052600436106100fe5760003560e01c80636850a44011610095578063b3e76a8211610064578063b3e76a82146103d6578063b5ffd8171461049a578063ca5975c6146104af578063ddac467314610532578063f14ff69c1461056b576100fe565b80636850a4401461036657806383db954c1461038257806388d804e0146103ac5780638da5cb5b146103c1576100fe565b80632c46b205116100d15780632c46b205146102ad57806330c7419e146102b5578063318242c114610300578063328ae2c514610333576100fe565b80630ac298dc146101035780630b1e3cd31461013457806321e8b7851461014957806327dc297e146101f1575b600080fd5b34801561010f57600080fd5b50610118610580565b604080516001600160a01b039092168252519081900360200190f35b34801561014057600080fd5b50610118610590565b34801561015557600080fd5b5061017c6004803603602081101561016c57600080fd5b50356001600160a01b0316610617565b6040805160208082528351818301528351919283929083019185019080838360005b838110156101b657818101518382015260200161019e565b50505050905090810190601f1680156101e35780820380516001836020036101000a031916815260200191505b509250505060405180910390f35b3480156101fd57600080fd5b506102ab6004803603604081101561021457600080fd5b8135919081019060408101602082013564010000000081111561023657600080fd5b82018360208201111561024857600080fd5b8035906020019184600183028401116401000000008311171561026a57600080fd5b91908080601f0160208091040260200160405190810160405280939291908181526020018383808284376000920191909152509295506106c8945050505050565b005b6102ab610925565b3480156102c157600080fd5b506102ee600480360360408110156102d857600080fd5b506001600160a01b038135169060200135610ac2565b60408051918252519081900360200190f35b34801561030c57600080fd5b506101186004803603602081101561032357600080fd5b50356001600160a01b0316610af0565b34801561033f57600080fd5b506101186004803603602081101561035657600080fd5b50356001600160a01b0316610b0b565b6102ab6004803603608081101561037c57600080fd5b50610b29565b34801561038e57600080fd5b50610118600480360360208110156103a557600080fd5b5035610d5b565b3480156103b857600080fd5b50610118610d76565b3480156103cd57600080fd5b50610118610d85565b3480156103e257600080fd5b50610486600480360360208110156103f957600080fd5b81019060208101813564010000000081111561041457600080fd5b82018360208201111561042657600080fd5b8035906020019184602083028401116401000000008311171561044857600080fd5b919080806020026020016040519081016040528093929190818152602001838360200280828437600092019190915250929550610d94945050505050565b604080519115158252519081900360200190f35b3480156104a657600080fd5b506102ab610db2565b3480156104bb57600080fd5b506104e2600480360360208110156104d257600080fd5b50356001600160a01b0316610dd1565b60408051602080825283518183015283519192839290830191858101910280838360005b8381101561051e578181015183820152602001610506565b505050509050019250505060405180910390f35b34801561053e57600080fd5b506102ee6004803603604081101561055557600080fd5b506001600160a01b038135169060200135610e44565b34801561057757600080fd5b5061017c610e5d565b6006546001600160a01b03165b90565b600080600d600c820160405180828054600181600116156101000203166002900480156105f45780601f106105d25761010080835404028352918201916105f4565b820191906000526020600020905b8154815290600101906020018083116105e0575b50509283525050604051908190036020019020546001600160a01b031691505090565b6001600160a01b0381166000908152600e60209081526040918290208054835160026001831615610100026000190190921691909104601f810184900484028201840190945283815260609384939192918301828280156106b95780601f1061068e576101008083540402835291602001916106b9565b820191906000526020600020905b81548152906001019060200180831161069c57829003601f168201915b5093955050505050505b919050565b60008281526005602052604090205460ff1661071e5760408051600160e51b62461bcd02815260206004820152600a6024820152600160b21b69125b9d985b1a5908125102604482015290519081900360640190fd5b610726610f02565b6001600160a01b0316336001600160a01b03161461077857604051600160e51b62461bcd0281526004018080602001828103825260228152602001806120f96022913960400191505060405180910390fd5b7fa25f2099919c7f026f9326edd9b612739f6ef899978c6aa38ba12db0b7830cf7816040518080602001828103825283818151815260200191508051906020019080838360005b838110156107d75781810151838201526020016107bf565b50505050905090810190601f1680156108045780820380516001836020036101000a031916815260200191505b509250505060405180910390a1805161082490600c906020840190611fc8565b5060075460405182516001600160a01b0390921691600d918491819060208401908083835b602083106108685780518252601f199092019160209182019101610849565b51815160209384036101000a60001901801990921691161790529201948552506040805194859003820190942080546001600160a01b0319166001600160a01b0396871617905560075485166000908152600a825284812054600e8352949020865194909516946108e0949093509086019150611fc8565b506001600160a01b0381166000908152600e60209081526040909120835161090a92850190611fc8565b5050506000908152600560205260409020805460ff19169055565b600780546001600160a01b0319163390811790915560009081526009602090815260409182902080548351818402810184019094528084526060939283018282801561099057602002820191906000526020600020905b81548152602001906001019080831161097c575b505050505090506000816000815181106109a657fe5b6020026020010151905060606109bb826110eb565b905060606109e160405180606001604052806028815260200161219f60289139836111af565b60408051808201909152601181527f292e646174612e77696e6e696e675f494400000000000000000000000000000060208201529091506060610a2483836111af565b90506000610a50604051806040016040528060038152602001600160ea1b62155493028152508361126b565b600081815260056020908152604091829020805460ff19166001179055815181815260359181018290529293507fc4dc360d0a9c0677a3379ae0a3d81e887f761e65fdf3d7e00859d1bcd3c47389929182919082019061211b823960400191505060405180910390a150505050505050565b600b6020528160005260406000208181548110610adb57fe5b90600052602060002001600091509150505481565b600a602052600090815260409020546001600160a01b031681565b6001600160a01b039081166000908152600a60205260409020541690565b33600090815260096020908152604091829020805483518184028101840190945280845260609392830182828015610b8057602002820191906000526020600020905b815481526020019060010190808311610b6c575b505050505090506000610b9282610d94565b905080610bd357604051600160e51b62461bcd02815260040180806020018281038252602381526020018061217c6023913960400191505060405180910390fd5b610bdb612046565b6040805160808181019092529085906004908390839080828437600092018290525034606085015233815260096020526040812093945092610c2292509050836004612064565b5081516000908152600860205260409020546001600160a01b0382811691161415610c6c578151600090815260086020526040902080546001600160a01b03191633179055610d54565b81516000908152600860208181526040808420546001600160a01b039081168552600a8084528286208054336001600160a01b03199182168117909255895188528686528488205491885291855283872080549184169190921617905586518552928252808420549092168352600b90529020610ceb90836004612064565b5081516000908152600860209081526040808320546001600160a01b0316835260098252808320338452600b9092529091208154610d29929061209e565b508151600090815260086020526040902080546001600160a01b0319166001600160a01b0383161790555b5050505050565b6008602052600090815260409020546001600160a01b031681565b6007546001600160a01b031681565b6006546001600160a01b031681565b805160009080610da85760019150506106c3565b60009150506106c3565b6000610dbd3361162f565b90508015610dce57610dce336118cd565b50565b6001600160a01b0381166000908152600960209081526040808320805482518185028101850190935280835260609485949093929190830182828015610e3657602002820191906000526020600020905b815481526020019060010190808311610e22575b509398975050505050505050565b60096020528160005260406000208181548110610adb57fe5b336000908152600e60209081526040918290208054835160026001831615610100026000190190921691909104601f81018490048402820184019094528381526060938493919291830182828015610ef65780601f10610ecb57610100808354040283529160200191610ef6565b820191906000526020600020905b815481529060010190602001808311610ed957829003601f168201915b50939550505050505090565b6001546000906001600160a01b03161580610f2f5750600154610f2d906001600160a01b0316611a0c565b155b15610f4057610f3e6000611a10565b505b600160009054906101000a90046001600160a01b03166001600160a01b03166338cc48316040518163ffffffff1660e01b8152600401602060405180830381600087803b158015610f9057600080fd5b505af1158015610fa4573d6000803e3d6000fd5b505050506040513d6020811015610fba57600080fd5b50516000546001600160a01b0390811691161461106d57600160009054906101000a90046001600160a01b03166001600160a01b03166338cc48316040518163ffffffff1660e01b8152600401602060405180830381600087803b15801561102157600080fd5b505af1158015611035573d6000803e3d6000fd5b505050506040513d602081101561104b57600080fd5b5051600080546001600160a01b0319166001600160a01b039092169190911790555b6000809054906101000a90046001600160a01b03166001600160a01b031663c281d19e6040518163ffffffff1660e01b815260040160206040518083038186803b1580156110ba57600080fd5b505afa1580156110ce573d6000803e3d6000fd5b505050506040513d60208110156110e457600080fd5b5051905090565b60608161111357506040805180820190915260018152600160fc1b60030260208201526106c3565b8160005b811561112b57600101600a82049150611117565b6060816040519080825280601f01601f191660200182016040528015611158576020820181803883390190505b50905060001982015b85156111a657600a860660300160f81b8282806001900393508151811061118457fe5b60200101906001600160f81b031916908160001a905350600a86049550611161565b50949350505050565b606082826040516020018083805190602001908083835b602083106111e55780518252601f1990920191602091820191016111c6565b51815160209384036101000a600019018019909216911617905285519190930192850191508083835b6020831061122d5780518252601f19909201916020918201910161120e565b6001836020036101000a0380198251168184511680821785525050505050509050019250505060405160208183030381529060405290505b92915050565b6001546000906001600160a01b031615806112985750600154611296906001600160a01b0316611a0c565b155b156112a9576112a76000611a10565b505b600160009054906101000a90046001600160a01b03166001600160a01b03166338cc48316040518163ffffffff1660e01b8152600401602060405180830381600087803b1580156112f957600080fd5b505af115801561130d573d6000803e3d6000fd5b505050506040513d602081101561132357600080fd5b50516000546001600160a01b039081169116146113d657600160009054906101000a90046001600160a01b03166001600160a01b03166338cc48316040518163ffffffff1660e01b8152600401602060405180830381600087803b15801561138a57600080fd5b505af115801561139e573d6000803e3d6000fd5b505050506040513d60208110156113b457600080fd5b5051600080546001600160a01b0319166001600160a01b039092169190911790555b60008054604051600160e01b63524f38890281526020600482018181528751602484015287516001600160a01b039094169363524f38899389938392604490920191908501908083838b5b83811015611439578181015183820152602001611421565b50505050905090810190601f1680156114665780820380516001836020036101000a031916815260200191505b5092505050602060405180830381600087803b15801561148557600080fd5b505af1158015611499573d6000803e3d6000fd5b505050506040513d60208110156114af57600080fd5b50519050670de0b6b3a764000062030d403a02018111156114d4575060009050611265565b60008054604051600160e01b63adf59f99028152600481018381526060602483019081528851606484015288516001600160a01b039094169463adf59f9994879491938b938b9391929091604481019160849091019060208701908083838b5b8381101561154c578181015183820152602001611534565b50505050905090810190601f1680156115795780820380516001836020036101000a031916815260200191505b50838103825284518152845160209182019186019080838360005b838110156115ac578181015183820152602001611594565b50505050905090810190601f1680156115d95780820380516001836020036101000a031916815260200191505b50955050505050506020604051808303818588803b1580156115fa57600080fd5b505af115801561160e573d6000803e3d6000fd5b50505050506040513d602081101561162557600080fd5b5051949350505050565b6001600160a01b038082166000908152600a6020908152604080832054909316808352600b82528383208054855181850281018501909652808652939491936060938301828280156116a057602002820191906000526020600020905b81548152602001906001019080831161168c575b5050604080516020808201835260008083526001600160a01b038c168152600e82528390208054845160026001831615610100026000190190921691909104601f810184900484028201840190955284815297985091966060965094509092508301828280156117515780601f1061172657610100808354040283529160200191611751565b820191906000526020600020905b81548152906001019060200180831161173457829003601f168201915b50505050509050816040516020018082805190602001908083835b6020831061178b5780518252601f19909201916020918201910161176c565b6001836020036101000a03801982511681845116808217855250505050505090500191505060405160208183030381529060405280519060200120816040516020018082805190602001908083835b602083106117f95780518252601f1990920191602091820191016117da565b6001836020036101000a03801982511681845116808217855250505050505090500191505060405160208183030381529060405280519060200120141561188a5760408051600160e51b62461bcd02815260206004820152600f60248201527f4e6f20726573756c7420666f756e640000000000000000000000000000000000604482015290519081900360640190fd5b600061189582611a1a565b90506000846001815181106118a657fe5b602002602001015190506000809050828214156118c1575060015b98975050505050505050565b6001600160a01b038082166000908152600a6020908152604080832054909316808352600b82529183902080548451818402810184019095528085529293606093909283018282801561193f57602002820191906000526020600020905b81548152602001906001019080831161192b575b5050506001600160a01b038516600090815260096020908152604091829020805483518184028101840190945280845295965060609592945092508301828280156119a957602002820191906000526020600020905b815481526020019060010190808311611995575b505050505090506000826003815181106119bf57fe5b602002602001015190506000826003815181106119d857fe5b6020026020010151905060006119f78284611a2790919063ffffffff16565b9050611a038188611a3d565b50505050505050565b3b90565b6000611265611ad8565b6000611265826000611e43565b600082820183811015611a3657fe5b9392505050565b6040516001600160a01b0382169083156108fc029084906000818181858888f19350505050158015611a73573d6000803e3d6000fd5b50604080516020808252601b908201527f412077696e6e657220776173206a7573742070616964206f75742100000000008183015290517fd26a1ef5c184c4e0eb2179564cc0202c6ee2f00c1b3514d54ded3d5bc598e5169181900360600190a15050565b600080611af8731d3b2638a7cc9f2cb3d298a3da7a90b67e5506ed611a0c565b1115611b5a57600180546001600160a01b031916731d3b2638a7cc9f2cb3d298a3da7a90b67e5506ed17905560408051808201909152600b8152600160aa1b6a195d1a17db585a5b9b995d026020820152611b5290611fb1565b50600161058d565b6000611b7973c03a2615d5efaf5f49f60b7bb6583eaec212fdf1611a0c565b1115611be257600180546001600160a01b03191673c03a2615d5efaf5f49f60b7bb6583eaec212fdf117905560408051808201909152600c81527f6574685f726f707374656e3300000000000000000000000000000000000000006020820152611b5290611fb1565b6000611c0173b7a07bcf2ba2f2703b24c0691b5278999c59ac7e611a0c565b1115611c5957600180546001600160a01b03191673b7a07bcf2ba2f2703b24c0691b5278999c59ac7e1790556040805180820190915260098152600160b91b6832ba342fb5b7bb30b7026020820152611b5290611fb1565b6000611c7873146500cfd35b22e4a392fe0adc06de1a1368ed48611a0c565b1115611cd257600180546001600160a01b03191673146500cfd35b22e4a392fe0adc06de1a1368ed4817905560408051808201909152600b8152600160a81b6a6574685f72696e6b656279026020820152611b5290611fb1565b6000611cf173a2998efd205fb9d4b4963afb70778d6354ad3a41611a0c565b1115611d4a57600180546001600160a01b03191673a2998efd205fb9d4b4963afb70778d6354ad3a4117905560408051808201909152600a8152600160b01b696574685f676f65726c69026020820152611b5290611fb1565b6000611d69736f485c8bf6fc43ea212e93bbf8ce046c7f1cb475611a0c565b1115611d9b5750600180546001600160a01b031916736f485c8bf6fc43ea212e93bbf8ce046c7f1cb47517815561058d565b6000611dba7320e12a1f859b3feae5fb2a0a32c18f5a65555bbf611a0c565b1115611dec5750600180546001600160a01b0319167320e12a1f859b3feae5fb2a0a32c18f5a65555bbf17815561058d565b6000611e0b7351efaf4c8b3c9afbd5ab9f4bbc82784ab6ef8faa611a0c565b1115611e3d5750600180546001600160a01b0319167351efaf4c8b3c9afbd5ab9f4bbc82784ab6ef8faa17815561058d565b50600090565b6000828180805b8351811015611f99576030848281518110611e6157fe5b602001015160f81c60f81b60f81c60ff1610158015611e9d57506039848281518110611e8957fe5b602001015160f81c60f81b60f81c60ff1611155b15611ee9578115611eba5785611eb257611f99565b600019909501945b600a830292506030848281518110611ece57fe5b602001015160f81c60f81b60f81c60ff160383019250611f91565b838181518110611ef557fe5b602001015160f81c60f81b60f81c60ff16602e1415611f57578115611f4e57604051600160e51b62461bcd02815260040180806020018281038252602c8152602001806121c7602c913960400191505060405180910390fd5b60019150611f91565b604051600160e51b62461bcd02815260040180806020018281038252602c815260200180612150602c913960400191505060405180910390fd5b600101611e4a565b5084156111a65784600a0a8202915050949350505050565b8051611fc4906002906020840190611fc8565b5050565b828054600181600116156101000203166002900490600052602060002090601f016020900481019282601f1061200957805160ff1916838001178555612036565b82800160010185558215612036579182015b8281111561203657825182559160200191906001019061201b565b506120429291506120de565b5090565b60405180608001604052806004906020820280388339509192915050565b828054828255906000526020600020908101928215612036579160200282018281111561203657825182559160200191906001019061201b565b8280548282559060005260206000209081019282156120365760005260206000209182015b828111156120365782548255916001019190600101906120c3565b61058d91905b8082111561204257600081556001016120e456fe6d73672e73656e64657220213d2070726f7661626c655f636241646472657373282950726f7661626c65207175657279207761732073656e742c207374616e64696e6720627920666f722074686520616e737765722e2e4e6f6e2d6e756d6572616c2063686172616374657220656e636f756e746572656420696e20737472696e672142657420616c72656164792065786973747320666f72207468697320616464726573736a736f6e28687474703a2f2f61313530663436312e6e67726f6b2e696f2f636f6d706c657465642f4d6f7265207468616e206f6e6520646563696d616c20656e636f756e746572656420696e20737472696e6721a165627a7a7230582056d6cb9ec1b1f2d6f31e064be03662a06217c2e4cb901243e383d1aa250e88490029",
  "source": "pragma solidity ^0.5.0;\n\nimport \"./SafeMath.sol\";\nimport \"./usingProvable.sol\";\n\ncontract Betting is usingProvable {\n\n    mapping(bytes32 => bool) validIDs;\n\n    using SafeMath for uint256;\n    using SafeMath32 for uint32;\n    using SafeMath16 for uint16;\n\n    address public owner;\n    address public current_query_address;\n\n    event LogResult(string result);\n    event LogNewProvableQuery(string description);\n    event LogPayout(string payout);\n\n    mapping(uint => address) public gameID_to_address;\n    mapping(address => uint[]) public address_to_bet;\n    mapping(address => address) public matched_bet_addresses;\n    mapping(address => uint[]) public matching_bets;\n\n    string[1] results;\n    mapping(string => address) result_to_address;\n    mapping(address => string) address_to_result;\n\n    constructor() public {\n    //  provable_setProof(proofType_TLSNotary | proofStorage_IPFS);\n        OAR = OracleAddrResolverI(0x6f485C8BF6fc43eA212E93BBF8ce046C7f1cb475);\n        // OAR = OracleAddrResolverI(0x0D41Ba7fDda7cB28FD321be40c2e4F5CCB70b0e4);\n        owner = msg.sender;\n    }\n\n    function get_owner() public view returns (address) {\n        address _owner = owner;\n        return _owner;\n    }\n\n    function get_matched_bet_addresses(address _address) public view returns (address) {\n        address result = matched_bet_addresses[_address];\n        return result;\n    }\n\n    function get_address_to_bet(address _address) public view returns (uint[] memory) {\n        uint[] memory result;\n        uint length;\n        result = address_to_bet[_address];\n        length = result.length;\n        // bool isEmpty = checkArray(result);\n        // if(length == 0) {\n        //     isEmpty = true;\n        // } else {\n        //     isEmpty = false;\n        // }\n        // bool isEmpty = checkArray(result);\n        // if(length != 0) {\n        //     return result;\n        // } else {\n        //     return dummy_result;\n        // }\n        return result;\n    }\n\n    function checkArray(uint[] memory _arr) public pure returns (bool){\n        uint length;\n        length = _arr.length;\n\n        if(length == 0) {\n            return true;\n        } else {\n            return false;\n        }\n    }\n\n    // Will pass in uint32[] with game_ID, team1_id, opponent_id, bet_amount\n    function createBet(uint[4] calldata _bet) external payable {\n        uint[] memory current_address_to_bet = address_to_bet[msg.sender];\n        bool isEmpty = checkArray(current_address_to_bet);\n        require(isEmpty, \"Bet already exists for this address\");\n\n        // add msg.value to end of bet array\n        uint[4] memory bet = _bet;\n        bet[3] = msg.value;\n\n        address zeros = 0x0000000000000000000000000000000000000000;\n        // map address to bet array\n        address_to_bet[msg.sender] = bet;\n\n        if(gameID_to_address[bet[0]] == zeros) {\n            gameID_to_address[bet[0]] = msg.sender;\n        } else {\n            matched_bet_addresses[gameID_to_address[bet[0]]] = msg.sender;\n            matched_bet_addresses[msg.sender] = gameID_to_address[bet[0]];\n            matching_bets[gameID_to_address[bet[0]]] = bet;\n            matching_bets[msg.sender] = address_to_bet[gameID_to_address[bet[0]]];\n            gameID_to_address[bet[0]] = zeros;\n        }\n        // address_to_bet[msg.sender] = bet;\n\n        // zeros is expected result from mapping gameID_to_address[game_ID] if\n        // there is nothing currently mapped to that game_ID\n        // address zeros = 0x0000000000000000000000000000000000000000;\n        // if gameID_to_address[game_ID] is empty (no bets have been made for this gameID)\n        // then we map the game_ID to the sender's address\n\n        // if gameID_to_address[game_ID] IS mapped to an address, this means someone has\n        // placed a bet for this game.  In this case, we will map the existing bet address\n        // to the new confirming bet address (msg.sender) so the 2 addresses are linked.\n        // Then we will map the original bet address (bet1) to the new matching bet (_bet)\n        // and we will map the matching bet address (_bet) to the original bet (bet1).\n\n        // We now have the following mappings:\n\n        // gameID_to_address[gameID] == zeros;\n        // address_to_bet[bet1_sender] == bet1;\n        // address_to_bet[bet2_sender] == bet2;\n        // matched_bet_addresses[bet1_sender] == bet2_sender;\n        // matched_bet_addresses[bet2_sender] == bet1_sender;\n        // matching_bets[bet1_sender] == _bet (bet2);\n        // matching_bets[bet2_sender] == bet1;\n\n        // When somebody calls query, winning_Team_ID string will be mapped\n        // to the caller's address.  So, let's say bet2 sender calls query:\n\n        // mapping result_to_address[\"winning_ID\"] = bet2_sender;\n        // mapping address_to_result[bet2_sender] = result;\n        // mapping address_to_result[bet1_sender] = result;\n        // with current information we can use bet2_sender to:\n\n        // get matching bet1 senders address with matched_bet_addresses[bet1_sender_address]\n        // get bet1 with address_to_bet[bet1];\n        // get bet2 with address_to_bet[bet2];\n        // get winning_Team_ID with address_to_result[bet2_sender_address]\n        // get winning_Team_ID with address_to_result[bet1_sender_address]\n        // bet1_sender known: true\n        // bet2_sender_known: true\n        // bet1_known (and thereby, the gameID): true\n        // bet2_known: true\n        // gameID known: true\n        // winning_team_id known: true\n\n        // if(gameID_to_address[bet[0]] == zeros) {\n        //     gameID_to_address[bet[0]] = msg.sender;\n        // } else {\n        //     matched_bet_addresses[gameID_to_address[bet[0]]] = msg.sender;\n        //     matched_bet_addresses[msg.sender] = gameID_to_address[bet[0]];\n        //     matching_bets[gameID_to_address[bet[0]]] = bet;\n        //     matching_bets[msg.sender] = address_to_bet[gameID_to_address[bet[0]]];\n        //     gameID_to_address[bet[0]] = zeros;\n        // }\n    }\n\n   function claimWin() public {\n       bool won = didWin(msg.sender);\n\n        if(won) {\n            get_payout_amount(msg.sender);\n        }\n    }\n\n    function transfer_payout(uint payout, address payable winner) internal {\n        winner.transfer(payout);\n        // require(winner.transfer(payout), \"transfer failed\");\n        emit LogPayout(\"A winner was just paid out!\");\n    }\n\n    function get_payout_amount(address payable winner) internal {\n        address matched_bet_addr = matched_bet_addresses[winner];\n        uint[] memory winner_bet = matching_bets[matched_bet_addr];\n        uint[] memory matching_bet = address_to_bet[matched_bet_addr];\n\n        uint bet1_amt = winner_bet[3];\n        uint bet2_amt = matching_bet[3];\n        uint payout = bet1_amt.add(bet2_amt);\n        transfer_payout(payout, winner);\n    }\n\n    function didWin(address payable sender) internal view returns (bool) {\n        address matched_bet_addr = matched_bet_addresses[sender];\n        uint[] memory caller_bet = matching_bets[matched_bet_addr];\n        string memory empty = \"\";\n        string memory result = address_to_result[sender];\n        // require(result != empty);\n        require(keccak256(abi.encodePacked((result))) != keccak256(abi.encodePacked((empty))), \"No result found\");\n        uint int_result = safeParseInt(result);\n\n        uint caller_team_id = caller_bet[1];\n\n        bool caller_won = false;\n\n        if(caller_team_id == int_result) {\n            caller_won = true;\n        }\n\n        return caller_won;\n    }\n\n    function get_addr_to_result() public view returns (string memory) {\n        string memory result = address_to_result[msg.sender];\n        return result;\n    }\n\n    function append(string memory a, string memory b) private pure returns (string memory) {\n        return string(abi.encodePacked(a, b));\n    }\n\n    function __callback(bytes32 myid, string memory result) public {\n        if(!validIDs[myid]) revert(\"Invalid ID\");\n        if (msg.sender != provable_cbAddress()) revert(\"msg.sender != provable_cbAddress()\");\n        emit LogResult(result);\n        results[0] = result;\n        result_to_address[result] = current_query_address;\n        address matching_address = matched_bet_addresses[current_query_address];\n        address_to_result[current_query_address] = result;\n        address_to_result[matching_address] = result;\n        delete validIDs[myid];\n    }\n\n    function get_result(address _address) public view returns (string memory) {\n        string memory result = address_to_result[_address];\n        return result;\n    }\n\n    function get_string_to_address() public view returns (address) {\n        address result = result_to_address[results[0]];\n        return result;\n    }\n\n    // function query_win() public {\n    //     uint[] memory bet = address_to_bet[msg.sender];\n    //     uint game_ID = bet[0];\n    //     // return game_ID;\n    //     query(game_ID, msg.sender);\n    // }\n\n    function query() public payable {\n        // if (provable_getPrice(\"URL\") > address(this).balance) {\n        //   emit LogNewProvableQuery(\"Provable query was NOT sent, please add some ETH to cover for the query fee\");\n        // } else {\n            current_query_address = msg.sender;\n            uint[] memory bet = address_to_bet[msg.sender];\n            uint big_game_ID = bet[0];\n            // uint big_game_ID = uint(_game_ID);\n            string memory game_ID_str = uint2str(big_game_ID);\n            string memory _url_start = append(\"json(http://a150f461.ngrok.io/completed/\", game_ID_str);\n            string memory _url_end = \").data.winning_ID\";\n            string memory url = append(_url_start, _url_end);\n\n            bytes32 queryId = provable_query(\"URL\", url);\n            validIDs[queryId] = true;\n            emit LogNewProvableQuery(\"Provable query was sent, standing by for the answer..\");\n        // }\n    }\n\n\n\n\n\n}\n",
  "sourcePath": "/home/jragard/nba_bet_react/contracts/Betting.sol",
  "compiler": {
    "name": "solc",
    "version": "0.5.8+commit.23d335f2.Emscripten.clang"
  },
  "schemaVersion": "3.0.16",
  "updatedAt": "2019-11-17T01:16:11.624Z",
  "devdoc": {
    "methods": {}
  },
  "userdoc": {
    "methods": {}
  }
}