{
  "contractName": "Betting",
  "abi": [
    {
      "constant": true,
      "inputs": [
        {
          "name": "",
          "type": "address"
        },
        {
          "name": "",
          "type": "uint256"
        }
      ],
      "name": "matching_bets",
      "outputs": [
        {
          "name": "",
          "type": "uint256"
        }
      ],
      "payable": false,
      "stateMutability": "view",
      "type": "function"
    },
    {
      "constant": true,
      "inputs": [
        {
          "name": "",
          "type": "address"
        }
      ],
      "name": "matched_bet_addresses",
      "outputs": [
        {
          "name": "",
          "type": "address"
        }
      ],
      "payable": false,
      "stateMutability": "view",
      "type": "function"
    },
    {
      "constant": true,
      "inputs": [
        {
          "name": "",
          "type": "uint256"
        }
      ],
      "name": "gameID_to_address",
      "outputs": [
        {
          "name": "",
          "type": "address"
        }
      ],
      "payable": false,
      "stateMutability": "view",
      "type": "function"
    },
    {
      "constant": true,
      "inputs": [],
      "name": "current_query_address",
      "outputs": [
        {
          "name": "",
          "type": "address"
        }
      ],
      "payable": false,
      "stateMutability": "view",
      "type": "function"
    },
    {
      "constant": true,
      "inputs": [],
      "name": "owner",
      "outputs": [
        {
          "name": "",
          "type": "address"
        }
      ],
      "payable": false,
      "stateMutability": "view",
      "type": "function"
    },
    {
      "constant": true,
      "inputs": [
        {
          "name": "",
          "type": "address"
        },
        {
          "name": "",
          "type": "uint256"
        }
      ],
      "name": "address_to_bet",
      "outputs": [
        {
          "name": "",
          "type": "uint256"
        }
      ],
      "payable": false,
      "stateMutability": "view",
      "type": "function"
    },
    {
      "inputs": [],
      "payable": false,
      "stateMutability": "nonpayable",
      "type": "constructor"
    },
    {
      "anonymous": false,
      "inputs": [
        {
          "indexed": false,
          "name": "result",
          "type": "string"
        }
      ],
      "name": "LogResult",
      "type": "event"
    },
    {
      "anonymous": false,
      "inputs": [
        {
          "indexed": false,
          "name": "description",
          "type": "string"
        }
      ],
      "name": "LogNewProvableQuery",
      "type": "event"
    },
    {
      "anonymous": false,
      "inputs": [
        {
          "indexed": false,
          "name": "payout",
          "type": "string"
        }
      ],
      "name": "LogPayout",
      "type": "event"
    },
    {
      "constant": true,
      "inputs": [],
      "name": "get_owner",
      "outputs": [
        {
          "name": "",
          "type": "address"
        }
      ],
      "payable": false,
      "stateMutability": "view",
      "type": "function"
    },
    {
      "constant": true,
      "inputs": [
        {
          "name": "_address",
          "type": "address"
        }
      ],
      "name": "get_matched_bet_addresses",
      "outputs": [
        {
          "name": "",
          "type": "address"
        }
      ],
      "payable": false,
      "stateMutability": "view",
      "type": "function"
    },
    {
      "constant": true,
      "inputs": [
        {
          "name": "_address",
          "type": "address"
        }
      ],
      "name": "get_address_to_bet",
      "outputs": [
        {
          "name": "",
          "type": "uint256[]"
        }
      ],
      "payable": false,
      "stateMutability": "view",
      "type": "function"
    },
    {
      "constant": true,
      "inputs": [
        {
          "name": "_arr",
          "type": "uint256[]"
        }
      ],
      "name": "checkArray",
      "outputs": [
        {
          "name": "",
          "type": "bool"
        }
      ],
      "payable": false,
      "stateMutability": "pure",
      "type": "function"
    },
    {
      "constant": false,
      "inputs": [
        {
          "name": "_bet",
          "type": "uint256[4]"
        }
      ],
      "name": "createBet",
      "outputs": [],
      "payable": true,
      "stateMutability": "payable",
      "type": "function"
    },
    {
      "constant": false,
      "inputs": [],
      "name": "claimWin",
      "outputs": [],
      "payable": false,
      "stateMutability": "nonpayable",
      "type": "function"
    },
    {
      "constant": true,
      "inputs": [],
      "name": "get_addr_to_result",
      "outputs": [
        {
          "name": "",
          "type": "string"
        }
      ],
      "payable": false,
      "stateMutability": "view",
      "type": "function"
    },
    {
      "constant": false,
      "inputs": [
        {
          "name": "myid",
          "type": "bytes32"
        },
        {
          "name": "result",
          "type": "string"
        }
      ],
      "name": "__callback",
      "outputs": [],
      "payable": false,
      "stateMutability": "nonpayable",
      "type": "function"
    },
    {
      "constant": true,
      "inputs": [
        {
          "name": "_address",
          "type": "address"
        }
      ],
      "name": "get_result",
      "outputs": [
        {
          "name": "",
          "type": "string"
        }
      ],
      "payable": false,
      "stateMutability": "view",
      "type": "function"
    },
    {
      "constant": true,
      "inputs": [],
      "name": "get_string_to_address",
      "outputs": [
        {
          "name": "",
          "type": "address"
        }
      ],
      "payable": false,
      "stateMutability": "view",
      "type": "function"
    },
    {
      "constant": false,
      "inputs": [],
      "name": "query_win",
      "outputs": [],
      "payable": false,
      "stateMutability": "nonpayable",
      "type": "function"
    }
  ],
  "bytecode": "0x608060405234801561001057600080fd5b50600180546001600160a01b0319908116736f485c8bf6fc43ea212e93bbf8ce046c7f1cb47517909155600680549091163317905561257b806100546000396000f3fe6080604052600436106100fe5760003560e01c806383db954c11610095578063b5ffd81711610064578063b5ffd81714610492578063ca5975c6146104a7578063ddac46731461052a578063e8e34ee714610563578063f14ff69c14610578576100fe565b806383db954c1461037a57806388d804e0146103a45780638da5cb5b146103b9578063b3e76a82146103ce576100fe565b806330c7419e116100d157806330c7419e146102ad578063318242c1146102f8578063328ae2c51461032b5780636850a4401461035e576100fe565b80630ac298dc146101035780630b1e3cd31461013457806321e8b7851461014957806327dc297e146101f1575b600080fd5b34801561010f57600080fd5b5061011861058d565b604080516001600160a01b039092168252519081900360200190f35b34801561014057600080fd5b5061011861059d565b34801561015557600080fd5b5061017c6004803603602081101561016c57600080fd5b50356001600160a01b0316610624565b6040805160208082528351818301528351919283929083019185019080838360005b838110156101b657818101518382015260200161019e565b50505050905090810190601f1680156101e35780820380516001836020036101000a031916815260200191505b509250505060405180910390f35b3480156101fd57600080fd5b506102ab6004803603604081101561021457600080fd5b8135919081019060408101602082013564010000000081111561023657600080fd5b82018360208201111561024857600080fd5b8035906020019184600183028401116401000000008311171561026a57600080fd5b91908080601f0160208091040260200160405190810160405280939291908181526020018383808284376000920191909152509295506106d5945050505050565b005b3480156102b957600080fd5b506102e6600480360360408110156102d057600080fd5b506001600160a01b038135169060200135610932565b60408051918252519081900360200190f35b34801561030457600080fd5b506101186004803603602081101561031b57600080fd5b50356001600160a01b0316610960565b34801561033757600080fd5b506101186004803603602081101561034e57600080fd5b50356001600160a01b031661097b565b6102ab6004803603608081101561037457600080fd5b50610999565b34801561038657600080fd5b506101186004803603602081101561039d57600080fd5b5035610bcb565b3480156103b057600080fd5b50610118610be6565b3480156103c557600080fd5b50610118610bf5565b3480156103da57600080fd5b5061047e600480360360208110156103f157600080fd5b81019060208101813564010000000081111561040c57600080fd5b82018360208201111561041e57600080fd5b8035906020019184602083028401116401000000008311171561044057600080fd5b919080806020026020016040519081016040528093929190818152602001838360200280828437600092019190915250929550610c04945050505050565b604080519115158252519081900360200190f35b34801561049e57600080fd5b506102ab610c22565b3480156104b357600080fd5b506104da600480360360208110156104ca57600080fd5b50356001600160a01b0316610c41565b60408051602080825283518183015283519192839290830191858101910280838360005b838110156105165781810151838201526020016104fe565b505050509050019250505060405180910390f35b34801561053657600080fd5b506102e66004803603604081101561054d57600080fd5b506001600160a01b038135169060200135610cc6565b34801561056f57600080fd5b506102ab610cdf565b34801561058457600080fd5b5061017c610d5b565b6006546001600160a01b03165b90565b600080600d600c820160405180828054600181600116156101000203166002900480156106015780601f106105df576101008083540402835291820191610601565b820191906000526020600020905b8154815290600101906020018083116105ed575b50509283525050604051908190036020019020546001600160a01b031691505090565b6001600160a01b0381166000908152600e60209081526040918290208054835160026001831615610100026000190190921691909104601f810184900484028201840190945283815260609384939192918301828280156106c65780601f1061069b576101008083540402835291602001916106c6565b820191906000526020600020905b8154815290600101906020018083116106a957829003601f168201915b5093955050505050505b919050565b60008281526005602052604090205460ff1661072b5760408051600160e51b62461bcd02815260206004820152600a6024820152600160b21b69125b9d985b1a5908125102604482015290519081900360640190fd5b610733610e00565b6001600160a01b0316336001600160a01b03161461078557604051600160e51b62461bcd0281526004018080602001828103825260228152602001806123fb6022913960400191505060405180910390fd5b7fa25f2099919c7f026f9326edd9b612739f6ef899978c6aa38ba12db0b7830cf7816040518080602001828103825283818151815260200191508051906020019080838360005b838110156107e45781810151838201526020016107cc565b50505050905090810190601f1680156108115780820380516001836020036101000a031916815260200191505b509250505060405180910390a1805161083190600c9060208401906122ca565b5060075460405182516001600160a01b0390921691600d918491819060208401908083835b602083106108755780518252601f199092019160209182019101610856565b51815160209384036101000a60001901801990921691161790529201948552506040805194859003820190942080546001600160a01b0319166001600160a01b0396871617905560075485166000908152600a825284812054600e8352949020865194909516946108ed9490935090860191506122ca565b506001600160a01b0381166000908152600e602090815260409091208351610917928501906122ca565b5050506000908152600560205260409020805460ff19169055565b600b602052816000526040600020818154811061094b57fe5b90600052602060002001600091509150505481565b600a602052600090815260409020546001600160a01b031681565b6001600160a01b039081166000908152600a60205260409020541690565b336000908152600960209081526040918290208054835181840281018401909452808452606093928301828280156109f057602002820191906000526020600020905b8154815260200190600101908083116109dc575b505050505090506000610a0282610c04565b905080610a4357604051600160e51b62461bcd0281526004018080602001828103825260238152602001806125016023913960400191505060405180910390fd5b610a4b612348565b6040805160808181019092529085906004908390839080828437600092018290525034606085015233815260096020526040812093945092610a9292509050836004612366565b5081516000908152600860205260409020546001600160a01b0382811691161415610adc578151600090815260086020526040902080546001600160a01b03191633179055610bc4565b81516000908152600860208181526040808420546001600160a01b039081168552600a8084528286208054336001600160a01b03199182168117909255895188528686528488205491885291855283872080549184169190921617905586518552928252808420549092168352600b90529020610b5b90836004612366565b5081516000908152600860209081526040808320546001600160a01b0316835260098252808320338452600b9092529091208154610b9992906123a0565b508151600090815260086020526040902080546001600160a01b0319166001600160a01b0383161790555b5050505050565b6008602052600090815260409020546001600160a01b031681565b6007546001600160a01b031681565b6006546001600160a01b031681565b805160009080610c185760019150506106d0565b60009150506106d0565b6000610c2d33610fe9565b90508015610c3e57610c3e33611287565b50565b6001600160a01b0381166000908152600960209081526040808320805482518185028101850190935280835260609485949093929190830182828015610ca657602002820191906000526020600020905b815481526020019060010190808311610c92575b50505050509150815190506000610cbc83610c04565b5091949350505050565b6009602052816000526040600020818154811061094b57fe5b33600090815260096020908152604091829020805483518184028101840190945280845260609392830182828015610d3657602002820191906000526020600020905b815481526020019060010190808311610d22575b50505050509050610c3e81600081518110610d4d57fe5b6020026020010151336113c6565b336000908152600e60209081526040918290208054835160026001831615610100026000190190921691909104601f81018490048402820184019094528381526060938493919291830182828015610df45780601f10610dc957610100808354040283529160200191610df4565b820191906000526020600020905b815481529060010190602001808311610dd757829003601f168201915b50939550505050505090565b6001546000906001600160a01b03161580610e2d5750600154610e2b906001600160a01b031661157e565b155b15610e3e57610e3c6000611582565b505b600160009054906101000a90046001600160a01b03166001600160a01b03166338cc48316040518163ffffffff1660e01b8152600401602060405180830381600087803b158015610e8e57600080fd5b505af1158015610ea2573d6000803e3d6000fd5b505050506040513d6020811015610eb857600080fd5b50516000546001600160a01b03908116911614610f6b57600160009054906101000a90046001600160a01b03166001600160a01b03166338cc48316040518163ffffffff1660e01b8152600401602060405180830381600087803b158015610f1f57600080fd5b505af1158015610f33573d6000803e3d6000fd5b505050506040513d6020811015610f4957600080fd5b5051600080546001600160a01b0319166001600160a01b039092169190911790555b6000809054906101000a90046001600160a01b03166001600160a01b031663c281d19e6040518163ffffffff1660e01b815260040160206040518083038186803b158015610fb857600080fd5b505afa158015610fcc573d6000803e3d6000fd5b505050506040513d6020811015610fe257600080fd5b5051905090565b6001600160a01b038082166000908152600a6020908152604080832054909316808352600b825283832080548551818502810185019096528086529394919360609383018282801561105a57602002820191906000526020600020905b815481526020019060010190808311611046575b5050604080516020808201835260008083526001600160a01b038c168152600e82528390208054845160026001831615610100026000190190921691909104601f8101849004840282018401909552848152979850919660609650945090925083018282801561110b5780601f106110e05761010080835404028352916020019161110b565b820191906000526020600020905b8154815290600101906020018083116110ee57829003601f168201915b50505050509050816040516020018082805190602001908083835b602083106111455780518252601f199092019160209182019101611126565b6001836020036101000a03801982511681845116808217855250505050505090500191505060405160208183030381529060405280519060200120816040516020018082805190602001908083835b602083106111b35780518252601f199092019160209182019101611194565b6001836020036101000a0380198251168184511680821785525050505050509050019150506040516020818303038152906040528051906020012014156112445760408051600160e51b62461bcd02815260206004820152600f60248201527f4e6f20726573756c7420666f756e640000000000000000000000000000000000604482015290519081900360640190fd5b600061124f82611592565b905060008460018151811061126057fe5b6020026020010151905060008090508282141561127b575060015b98975050505050505050565b6001600160a01b038082166000908152600a6020908152604080832054909316808352600b8252918390208054845181840281018401909552808552929360609390928301828280156112f957602002820191906000526020600020905b8154815260200190600101908083116112e5575b5050506001600160a01b0385166000908152600960209081526040918290208054835181840281018401909452808452959650606095929450925083018282801561136357602002820191906000526020600020905b81548152602001906001019080831161134f575b5050505050905060008260038151811061137957fe5b6020026020010151905060008260038151811061139257fe5b6020026020010151905060006113b1828461159f90919063ffffffff16565b90506113bd81886115b5565b50505050505050565b306001600160a01b0316316113f8604051806040016040528060038152602001600160ea1b6215549302815250611650565b111561144e577fc4dc360d0a9c0677a3379ae0a3d81e887f761e65fdf3d7e00859d1bcd3c4738960405180806020018281038252604b81526020018061248a604b913960600191505060405180910390a161157a565b600780546001600160a01b0319166001600160a01b0383161790558160606114758261189f565b9050606061149b6040518060600160405280603881526020016124526038913983611963565b60408051808201909152601181527f292e646174612e77696e6e696e675f4944000000000000000000000000000000602082015290915060606114de8383611963565b9050600061150a604051806040016040528060038152602001600160ea1b621554930281525083611a1e565b600081815260056020908152604091829020805460ff19166001179055815181815260359181018290529293507fc4dc360d0a9c0677a3379ae0a3d81e887f761e65fdf3d7e00859d1bcd3c47389929182919082019061241d823960400191505060405180910390a15050505050505b5050565b3b90565b600061158c611de2565b92915050565b600061158c82600061214d565b6000828201838110156115ae57fe5b9392505050565b6040516001600160a01b0382169083156108fc029084906000818181858888f193505050501580156115eb573d6000803e3d6000fd5b50604080516020808252601b908201527f412077696e6e657220776173206a7573742070616964206f75742100000000008183015290517fd26a1ef5c184c4e0eb2179564cc0202c6ee2f00c1b3514d54ded3d5bc598e5169181900360600190a15050565b6001546000906001600160a01b0316158061167d575060015461167b906001600160a01b031661157e565b155b1561168e5761168c6000611582565b505b600160009054906101000a90046001600160a01b03166001600160a01b03166338cc48316040518163ffffffff1660e01b8152600401602060405180830381600087803b1580156116de57600080fd5b505af11580156116f2573d6000803e3d6000fd5b505050506040513d602081101561170857600080fd5b50516000546001600160a01b039081169116146117bb57600160009054906101000a90046001600160a01b03166001600160a01b03166338cc48316040518163ffffffff1660e01b8152600401602060405180830381600087803b15801561176f57600080fd5b505af1158015611783573d6000803e3d6000fd5b505050506040513d602081101561179957600080fd5b5051600080546001600160a01b0319166001600160a01b039092169190911790555b60008054604051600160e01b63524f38890281526020600482018181528651602484015286516001600160a01b039094169463524f3889948894929384936044019290860191908190849084905b83811015611821578181015183820152602001611809565b50505050905090810190601f16801561184e5780820380516001836020036101000a031916815260200191505b5092505050602060405180830381600087803b15801561186d57600080fd5b505af1158015611881573d6000803e3d6000fd5b505050506040513d602081101561189757600080fd5b505192915050565b6060816118c757506040805180820190915260018152600160fc1b60030260208201526106d0565b8160005b81156118df57600101600a820491506118cb565b6060816040519080825280601f01601f19166020018201604052801561190c576020820181803883390190505b50905060001982015b851561195a57600a860660300160f81b8282806001900393508151811061193857fe5b60200101906001600160f81b031916908160001a905350600a86049550611915565b50949350505050565b606082826040516020018083805190602001908083835b602083106119995780518252601f19909201916020918201910161197a565b51815160209384036101000a600019018019909216911617905285519190930192850191508083835b602083106119e15780518252601f1990920191602091820191016119c2565b6001836020036101000a03801982511681845116808217855250505050505090500192505050604051602081830303815290604052905092915050565b6001546000906001600160a01b03161580611a4b5750600154611a49906001600160a01b031661157e565b155b15611a5c57611a5a6000611582565b505b600160009054906101000a90046001600160a01b03166001600160a01b03166338cc48316040518163ffffffff1660e01b8152600401602060405180830381600087803b158015611aac57600080fd5b505af1158015611ac0573d6000803e3d6000fd5b505050506040513d6020811015611ad657600080fd5b50516000546001600160a01b03908116911614611b8957600160009054906101000a90046001600160a01b03166001600160a01b03166338cc48316040518163ffffffff1660e01b8152600401602060405180830381600087803b158015611b3d57600080fd5b505af1158015611b51573d6000803e3d6000fd5b505050506040513d6020811015611b6757600080fd5b5051600080546001600160a01b0319166001600160a01b039092169190911790555b60008054604051600160e01b63524f38890281526020600482018181528751602484015287516001600160a01b039094169363524f38899389938392604490920191908501908083838b5b83811015611bec578181015183820152602001611bd4565b50505050905090810190601f168015611c195780820380516001836020036101000a031916815260200191505b5092505050602060405180830381600087803b158015611c3857600080fd5b505af1158015611c4c573d6000803e3d6000fd5b505050506040513d6020811015611c6257600080fd5b50519050670de0b6b3a764000062030d403a0201811115611c8757506000905061158c565b60008054604051600160e01b63adf59f99028152600481018381526060602483019081528851606484015288516001600160a01b039094169463adf59f9994879491938b938b9391929091604481019160849091019060208701908083838b5b83811015611cff578181015183820152602001611ce7565b50505050905090810190601f168015611d2c5780820380516001836020036101000a031916815260200191505b50838103825284518152845160209182019186019080838360005b83811015611d5f578181015183820152602001611d47565b50505050905090810190601f168015611d8c5780820380516001836020036101000a031916815260200191505b50955050505050506020604051808303818588803b158015611dad57600080fd5b505af1158015611dc1573d6000803e3d6000fd5b50505050506040513d6020811015611dd857600080fd5b5051949350505050565b600080611e02731d3b2638a7cc9f2cb3d298a3da7a90b67e5506ed61157e565b1115611e6457600180546001600160a01b031916731d3b2638a7cc9f2cb3d298a3da7a90b67e5506ed17905560408051808201909152600b8152600160aa1b6a195d1a17db585a5b9b995d026020820152611e5c906122bb565b50600161059a565b6000611e8373c03a2615d5efaf5f49f60b7bb6583eaec212fdf161157e565b1115611eec57600180546001600160a01b03191673c03a2615d5efaf5f49f60b7bb6583eaec212fdf117905560408051808201909152600c81527f6574685f726f707374656e3300000000000000000000000000000000000000006020820152611e5c906122bb565b6000611f0b73b7a07bcf2ba2f2703b24c0691b5278999c59ac7e61157e565b1115611f6357600180546001600160a01b03191673b7a07bcf2ba2f2703b24c0691b5278999c59ac7e1790556040805180820190915260098152600160b91b6832ba342fb5b7bb30b7026020820152611e5c906122bb565b6000611f8273146500cfd35b22e4a392fe0adc06de1a1368ed4861157e565b1115611fdc57600180546001600160a01b03191673146500cfd35b22e4a392fe0adc06de1a1368ed4817905560408051808201909152600b8152600160a81b6a6574685f72696e6b656279026020820152611e5c906122bb565b6000611ffb73a2998efd205fb9d4b4963afb70778d6354ad3a4161157e565b111561205457600180546001600160a01b03191673a2998efd205fb9d4b4963afb70778d6354ad3a4117905560408051808201909152600a8152600160b01b696574685f676f65726c69026020820152611e5c906122bb565b6000612073736f485c8bf6fc43ea212e93bbf8ce046c7f1cb47561157e565b11156120a55750600180546001600160a01b031916736f485c8bf6fc43ea212e93bbf8ce046c7f1cb47517815561059a565b60006120c47320e12a1f859b3feae5fb2a0a32c18f5a65555bbf61157e565b11156120f65750600180546001600160a01b0319167320e12a1f859b3feae5fb2a0a32c18f5a65555bbf17815561059a565b60006121157351efaf4c8b3c9afbd5ab9f4bbc82784ab6ef8faa61157e565b11156121475750600180546001600160a01b0319167351efaf4c8b3c9afbd5ab9f4bbc82784ab6ef8faa17815561059a565b50600090565b6000828180805b83518110156122a357603084828151811061216b57fe5b602001015160f81c60f81b60f81c60ff16101580156121a75750603984828151811061219357fe5b602001015160f81c60f81b60f81c60ff1611155b156121f35781156121c457856121bc576122a3565b600019909501945b600a8302925060308482815181106121d857fe5b602001015160f81c60f81b60f81c60ff16038301925061229b565b8381815181106121ff57fe5b602001015160f81c60f81b60f81c60ff16602e141561226157811561225857604051600160e51b62461bcd02815260040180806020018281038252602c815260200180612524602c913960400191505060405180910390fd5b6001915061229b565b604051600160e51b62461bcd02815260040180806020018281038252602c8152602001806124d5602c913960400191505060405180910390fd5b600101612154565b50841561195a5784600a0a8202915050949350505050565b805161157a9060029060208401905b828054600181600116156101000203166002900490600052602060002090601f016020900481019282601f1061230b57805160ff1916838001178555612338565b82800160010185558215612338579182015b8281111561233857825182559160200191906001019061231d565b506123449291506123e0565b5090565b60405180608001604052806004906020820280388339509192915050565b828054828255906000526020600020908101928215612338579160200282018281111561233857825182559160200191906001019061231d565b8280548282559060005260206000209081019282156123385760005260206000209182015b828111156123385782548255916001019190600101906123c5565b61059a91905b8082111561234457600081556001016123e656fe6d73672e73656e64657220213d2070726f7661626c655f636241646472657373282950726f7661626c65207175657279207761732073656e742c207374616e64696e6720627920666f722074686520616e737765722e2e6a736f6e2868747470733a2f2f686f6e6573742d646f6c7068696e2d36382e6c6f63616c74756e6e656c2e6d652f636f6d706c657465642f50726f7661626c6520717565727920776173204e4f542073656e742c20706c656173652061646420736f6d652045544820746f20636f76657220666f7220746865207175657279206665654e6f6e2d6e756d6572616c2063686172616374657220656e636f756e746572656420696e20737472696e672142657420616c72656164792065786973747320666f72207468697320616464726573734d6f7265207468616e206f6e6520646563696d616c20656e636f756e746572656420696e20737472696e6721a165627a7a723058206c0f9c751adbe9080da1bc2479c9ff6bab431b0796acaca2903957354e7a72520029",
  "source": "pragma solidity ^0.5.0;\n\nimport \"./SafeMath.sol\";\nimport \"./usingProvable.sol\";\n\ncontract Betting is usingProvable {\n\n    mapping(bytes32 => bool) validIDs;\n\n    using SafeMath for uint256;\n    using SafeMath32 for uint32;\n    using SafeMath16 for uint16;\n\n    address public owner;\n    address public current_query_address;\n\n    event LogResult(string result);\n    event LogNewProvableQuery(string description);\n    event LogPayout(string payout);\n\n    mapping(uint => address) public gameID_to_address;\n    mapping(address => uint[]) public address_to_bet;\n    mapping(address => address) public matched_bet_addresses;\n    mapping(address => uint[]) public matching_bets;\n\n    string[1] results;\n    mapping(string => address) result_to_address;\n    mapping(address => string) address_to_result;\n\n    constructor() public {\n    //  provable_setProof(proofType_TLSNotary | proofStorage_IPFS);\n        OAR = OracleAddrResolverI(0x6f485C8BF6fc43eA212E93BBF8ce046C7f1cb475);\n        owner = msg.sender;\n    }\n\n    function get_owner() public view returns (address) {\n        address _owner = owner;\n        return _owner;\n    }\n\n    function get_matched_bet_addresses(address _address) public view returns (address) {\n        address result = matched_bet_addresses[_address];\n        return result;\n    }\n\n    function get_address_to_bet(address _address) public view returns (uint[] memory) {\n        uint[] memory result;\n        uint length;\n        result = address_to_bet[_address];\n        length = result.length;\n        bool isEmpty = checkArray(result);\n        // if(length == 0) {\n        //     isEmpty = true;\n        // } else {\n        //     isEmpty = false;\n        // }\n        // bool isEmpty = checkArray(result);\n        // if(length != 0) {\n        //     return result;\n        // } else {\n        //     return dummy_result;\n        // }\n        return result;\n    }\n\n    function checkArray(uint[] memory _arr) public pure returns (bool){\n        uint length;\n        length = _arr.length;\n\n        if(length == 0) {\n            return true;\n        } else {\n            return false;\n        }\n    }\n\n    // Will pass in uint32[] with game_ID, team1_id, opponent_id, bet_amount\n    function createBet(uint[4] calldata _bet) external payable {\n        uint[] memory current_address_to_bet = address_to_bet[msg.sender];\n        bool isEmpty = checkArray(current_address_to_bet);\n        require(isEmpty, \"Bet already exists for this address\");\n\n        // add msg.value to end of bet array\n        uint[4] memory bet = _bet;\n        bet[3] = msg.value;\n\n        address zeros = 0x0000000000000000000000000000000000000000;\n        // map address to bet array\n        address_to_bet[msg.sender] = bet;\n\n        if(gameID_to_address[bet[0]] == zeros) {\n            gameID_to_address[bet[0]] = msg.sender;\n        } else {\n            matched_bet_addresses[gameID_to_address[bet[0]]] = msg.sender;\n            matched_bet_addresses[msg.sender] = gameID_to_address[bet[0]];\n            matching_bets[gameID_to_address[bet[0]]] = bet;\n            matching_bets[msg.sender] = address_to_bet[gameID_to_address[bet[0]]];\n            gameID_to_address[bet[0]] = zeros;\n        }\n        // address_to_bet[msg.sender] = bet;\n\n        // zeros is expected result from mapping gameID_to_address[game_ID] if\n        // there is nothing currently mapped to that game_ID\n        // address zeros = 0x0000000000000000000000000000000000000000;\n        // if gameID_to_address[game_ID] is empty (no bets have been made for this gameID)\n        // then we map the game_ID to the sender's address\n\n        // if gameID_to_address[game_ID] IS mapped to an address, this means someone has\n        // placed a bet for this game.  In this case, we will map the existing bet address\n        // to the new confirming bet address (msg.sender) so the 2 addresses are linked.\n        // Then we will map the original bet address (bet1) to the new matching bet (_bet)\n        // and we will map the matching bet address (_bet) to the original bet (bet1).\n\n        // We now have the following mappings:\n\n        // gameID_to_address[gameID] == zeros;\n        // address_to_bet[bet1_sender] == bet1;\n        // address_to_bet[bet2_sender] == bet2;\n        // matched_bet_addresses[bet1_sender] == bet2_sender;\n        // matched_bet_addresses[bet2_sender] == bet1_sender;\n        // matching_bets[bet1_sender] == _bet (bet2);\n        // matching_bets[bet2_sender] == bet1;\n\n        // When somebody calls query, winning_Team_ID string will be mapped\n        // to the caller's address.  So, let's say bet2 sender calls query:\n\n        // mapping result_to_address[\"winning_ID\"] = bet2_sender;\n        // mapping address_to_result[bet2_sender] = result;\n        // mapping address_to_result[bet1_sender] = result;\n        // with current information we can use bet2_sender to:\n\n        // get matching bet1 senders address with matched_bet_addresses[bet1_sender_address]\n        // get bet1 with address_to_bet[bet1];\n        // get bet2 with address_to_bet[bet2];\n        // get winning_Team_ID with address_to_result[bet2_sender_address]\n        // get winning_Team_ID with address_to_result[bet1_sender_address]\n        // bet1_sender known: true\n        // bet2_sender_known: true\n        // bet1_known (and thereby, the gameID): true\n        // bet2_known: true\n        // gameID known: true\n        // winning_team_id known: true\n\n        // if(gameID_to_address[bet[0]] == zeros) {\n        //     gameID_to_address[bet[0]] = msg.sender;\n        // } else {\n        //     matched_bet_addresses[gameID_to_address[bet[0]]] = msg.sender;\n        //     matched_bet_addresses[msg.sender] = gameID_to_address[bet[0]];\n        //     matching_bets[gameID_to_address[bet[0]]] = bet;\n        //     matching_bets[msg.sender] = address_to_bet[gameID_to_address[bet[0]]];\n        //     gameID_to_address[bet[0]] = zeros;\n        // }\n    }\n\n   function claimWin() public {\n       bool won = didWin(msg.sender);\n\n        if(won) {\n            get_payout_amount(msg.sender);\n        }\n    }\n\n    function transfer_payout(uint payout, address payable winner) private {\n        winner.transfer(payout);\n        // require(winner.transfer(payout), \"transfer failed\");\n        emit LogPayout(\"A winner was just paid out!\");\n    }\n\n    function get_payout_amount(address payable winner) private {\n        address matched_bet_addr = matched_bet_addresses[winner];\n        uint[] memory winner_bet = matching_bets[matched_bet_addr];\n        uint[] memory matching_bet = address_to_bet[matched_bet_addr];\n\n        uint bet1_amt = winner_bet[3];\n        uint bet2_amt = matching_bet[3];\n        uint payout = bet1_amt.add(bet2_amt);\n        transfer_payout(payout, winner);\n    }\n\n    function didWin(address payable sender) private view returns (bool) {\n        address matched_bet_addr = matched_bet_addresses[sender];\n        uint[] memory caller_bet = matching_bets[matched_bet_addr];\n        string memory empty = \"\";\n        string memory result = address_to_result[sender];\n        // require(result != empty);\n        require(keccak256(abi.encodePacked((result))) != keccak256(abi.encodePacked((empty))), \"No result found\");\n        uint int_result = safeParseInt(result);\n\n        uint caller_team_id = caller_bet[1];\n\n        bool caller_won = false;\n\n        if(caller_team_id == int_result) {\n            caller_won = true;\n        }\n\n        return caller_won;\n    }\n\n    function get_addr_to_result() public view returns (string memory) {\n        string memory result = address_to_result[msg.sender];\n        return result;\n    }\n\n    function append(string memory a, string memory b) private pure returns (string memory) {\n        return string(abi.encodePacked(a, b));\n    }\n\n    function __callback(bytes32 myid, string memory result) public {\n        if(!validIDs[myid]) revert(\"Invalid ID\");\n        if (msg.sender != provable_cbAddress()) revert(\"msg.sender != provable_cbAddress()\");\n        emit LogResult(result);\n        results[0] = result;\n        result_to_address[result] = current_query_address;\n        address matching_address = matched_bet_addresses[current_query_address];\n        address_to_result[current_query_address] = result;\n        address_to_result[matching_address] = result;\n        delete validIDs[myid];\n    }\n\n    function get_result(address _address) public view returns (string memory) {\n        string memory result = address_to_result[_address];\n        return result;\n    }\n\n    function get_string_to_address() public view returns (address) {\n        address result = result_to_address[results[0]];\n        return result;\n    }\n\n    function query_win() external {\n        uint[] memory bet = address_to_bet[msg.sender];\n        query(bet[0], msg.sender);\n    }\n\n    function query(uint _game_ID, address _sender) private {\n        if (provable_getPrice(\"URL\") > address(this).balance) {\n          emit LogNewProvableQuery(\"Provable query was NOT sent, please add some ETH to cover for the query fee\");\n        } else {\n            current_query_address = _sender;\n            uint big_game_ID = uint(_game_ID);\n            string memory game_ID_str = uint2str(big_game_ID);\n            string memory _url_start = append(\"json(https://honest-dolphin-68.localtunnel.me/completed/\", game_ID_str);\n            string memory _url_end = \").data.winning_ID\";\n            string memory url = append(_url_start, _url_end);\n\n            bytes32 queryId = provable_query(\"URL\", url);\n            validIDs[queryId] = true;\n            emit LogNewProvableQuery(\"Provable query was sent, standing by for the answer..\");\n        }\n    }\n\n\n\n\n\n}\n",
  "sourcePath": "/home/jragard/nba_bet_react/contracts/Betting.sol",
  "compiler": {
    "name": "solc",
    "version": "0.5.8+commit.23d335f2.Emscripten.clang"
  },
  "schemaVersion": "3.0.16",
  "updatedAt": "2019-10-02T01:33:57.128Z",
  "devdoc": {
    "methods": {}
  },
  "userdoc": {
    "methods": {}
  }
}