{
  "contractName": "Betting",
  "abi": [
    {
      "constant": true,
      "inputs": [
        {
          "name": "",
          "type": "address"
        },
        {
          "name": "",
          "type": "uint256"
        }
      ],
      "name": "matching_bets",
      "outputs": [
        {
          "name": "",
          "type": "uint256"
        }
      ],
      "payable": false,
      "stateMutability": "view",
      "type": "function"
    },
    {
      "constant": true,
      "inputs": [
        {
          "name": "",
          "type": "address"
        }
      ],
      "name": "matched_bet_addresses",
      "outputs": [
        {
          "name": "",
          "type": "address"
        }
      ],
      "payable": false,
      "stateMutability": "view",
      "type": "function"
    },
    {
      "constant": true,
      "inputs": [
        {
          "name": "",
          "type": "uint256"
        }
      ],
      "name": "gameID_to_address",
      "outputs": [
        {
          "name": "",
          "type": "address"
        }
      ],
      "payable": false,
      "stateMutability": "view",
      "type": "function"
    },
    {
      "constant": true,
      "inputs": [],
      "name": "current_query_address",
      "outputs": [
        {
          "name": "",
          "type": "address"
        }
      ],
      "payable": false,
      "stateMutability": "view",
      "type": "function"
    },
    {
      "constant": true,
      "inputs": [],
      "name": "owner",
      "outputs": [
        {
          "name": "",
          "type": "address"
        }
      ],
      "payable": false,
      "stateMutability": "view",
      "type": "function"
    },
    {
      "constant": true,
      "inputs": [
        {
          "name": "",
          "type": "address"
        },
        {
          "name": "",
          "type": "uint256"
        }
      ],
      "name": "address_to_bet",
      "outputs": [
        {
          "name": "",
          "type": "uint256"
        }
      ],
      "payable": false,
      "stateMutability": "view",
      "type": "function"
    },
    {
      "inputs": [],
      "payable": false,
      "stateMutability": "nonpayable",
      "type": "constructor"
    },
    {
      "anonymous": false,
      "inputs": [
        {
          "indexed": false,
          "name": "result",
          "type": "string"
        }
      ],
      "name": "LogResult",
      "type": "event"
    },
    {
      "anonymous": false,
      "inputs": [
        {
          "indexed": false,
          "name": "description",
          "type": "string"
        }
      ],
      "name": "LogNewProvableQuery",
      "type": "event"
    },
    {
      "anonymous": false,
      "inputs": [
        {
          "indexed": false,
          "name": "payout",
          "type": "string"
        }
      ],
      "name": "LogPayout",
      "type": "event"
    },
    {
      "constant": true,
      "inputs": [],
      "name": "get_owner",
      "outputs": [
        {
          "name": "",
          "type": "address"
        }
      ],
      "payable": false,
      "stateMutability": "view",
      "type": "function"
    },
    {
      "constant": false,
      "inputs": [
        {
          "name": "_bet",
          "type": "uint256[4]"
        }
      ],
      "name": "createBet",
      "outputs": [],
      "payable": true,
      "stateMutability": "payable",
      "type": "function"
    },
    {
      "constant": false,
      "inputs": [],
      "name": "claimWin",
      "outputs": [],
      "payable": false,
      "stateMutability": "nonpayable",
      "type": "function"
    },
    {
      "constant": true,
      "inputs": [],
      "name": "get_addr_to_result",
      "outputs": [
        {
          "name": "",
          "type": "string"
        }
      ],
      "payable": false,
      "stateMutability": "view",
      "type": "function"
    },
    {
      "constant": false,
      "inputs": [
        {
          "name": "myid",
          "type": "bytes32"
        },
        {
          "name": "result",
          "type": "string"
        }
      ],
      "name": "__callback",
      "outputs": [],
      "payable": false,
      "stateMutability": "nonpayable",
      "type": "function"
    },
    {
      "constant": true,
      "inputs": [
        {
          "name": "_address",
          "type": "address"
        }
      ],
      "name": "get_result",
      "outputs": [
        {
          "name": "",
          "type": "string"
        }
      ],
      "payable": false,
      "stateMutability": "view",
      "type": "function"
    },
    {
      "constant": true,
      "inputs": [],
      "name": "get_string_to_address",
      "outputs": [
        {
          "name": "",
          "type": "address"
        }
      ],
      "payable": false,
      "stateMutability": "view",
      "type": "function"
    },
    {
      "constant": false,
      "inputs": [],
      "name": "query_win",
      "outputs": [],
      "payable": false,
      "stateMutability": "nonpayable",
      "type": "function"
    }
  ],
  "bytecode": "0x608060405234801561001057600080fd5b50600180546001600160a01b0319908116736f485c8bf6fc43ea212e93bbf8ce046c7f1cb475179091556006805490911633179055612244806100546000396000f3fe6080604052600436106100dd5760003560e01c806383db954c1161007f578063b5ffd81711610059578063b5ffd8171461037a578063ddac46731461038f578063e8e34ee7146103c8578063f14ff69c146103dd576100dd565b806383db954c1461032657806388d804e0146103505780638da5cb5b14610365576100dd565b806327dc297e116100bb57806327dc297e146101d057806330c7419e1461028c578063318242c1146102d75780636850a4401461030a576100dd565b80630ac298dc146100e25780630b1e3cd31461011357806321e8b78514610128575b600080fd5b3480156100ee57600080fd5b506100f76103f2565b604080516001600160a01b039092168252519081900360200190f35b34801561011f57600080fd5b506100f7610402565b34801561013457600080fd5b5061015b6004803603602081101561014b57600080fd5b50356001600160a01b0316610489565b6040805160208082528351818301528351919283929083019185019080838360005b8381101561019557818101518382015260200161017d565b50505050905090810190601f1680156101c25780820380516001836020036101000a031916815260200191505b509250505060405180910390f35b3480156101dc57600080fd5b5061028a600480360360408110156101f357600080fd5b8135919081019060408101602082013564010000000081111561021557600080fd5b82018360208201111561022757600080fd5b8035906020019184600183028401116401000000008311171561024957600080fd5b91908080601f01602080910402602001604051908101604052809392919081815260200183838082843760009201919091525092955061053a945050505050565b005b34801561029857600080fd5b506102c5600480360360408110156102af57600080fd5b506001600160a01b038135169060200135610797565b60408051918252519081900360200190f35b3480156102e357600080fd5b506100f7600480360360208110156102fa57600080fd5b50356001600160a01b03166107c5565b61028a6004803603608081101561032057600080fd5b506107e0565b34801561033257600080fd5b506100f76004803603602081101561034957600080fd5b5035610960565b34801561035c57600080fd5b506100f761097b565b34801561037157600080fd5b506100f761098a565b34801561038657600080fd5b5061028a610999565b34801561039b57600080fd5b506102c5600480360360408110156103b257600080fd5b506001600160a01b0381351690602001356109b8565b3480156103d457600080fd5b5061028a6109d1565b3480156103e957600080fd5b5061015b610a4d565b6006546001600160a01b03165b90565b600080600d600c820160405180828054600181600116156101000203166002900480156104665780601f10610444576101008083540402835291820191610466565b820191906000526020600020905b815481529060010190602001808311610452575b50509283525050604051908190036020019020546001600160a01b031691505090565b6001600160a01b0381166000908152600e60209081526040918290208054835160026001831615610100026000190190921691909104601f8101849004840282018401909452838152606093849391929183018282801561052b5780601f106105005761010080835404028352916020019161052b565b820191906000526020600020905b81548152906001019060200180831161050e57829003601f168201915b5093955050505050505b919050565b60008281526005602052604090205460ff166105905760408051600160e51b62461bcd02815260206004820152600a6024820152600160b21b69125b9d985b1a5908125102604482015290519081900360640190fd5b610598610af2565b6001600160a01b0316336001600160a01b0316146105ea57604051600160e51b62461bcd0281526004018080602001828103825260228152602001806120ed6022913960400191505060405180910390fd5b7fa25f2099919c7f026f9326edd9b612739f6ef899978c6aa38ba12db0b7830cf7816040518080602001828103825283818151815260200191508051906020019080838360005b83811015610649578181015183820152602001610631565b50505050905090810190601f1680156106765780820380516001836020036101000a031916815260200191505b509250505060405180910390a1805161069690600c906020840190611fbc565b5060075460405182516001600160a01b0390921691600d918491819060208401908083835b602083106106da5780518252601f1990920191602091820191016106bb565b51815160209384036101000a60001901801990921691161790529201948552506040805194859003820190942080546001600160a01b0319166001600160a01b0396871617905560075485166000908152600a825284812054600e835294902086519490951694610752949093509086019150611fbc565b506001600160a01b0381166000908152600e60209081526040909120835161077c92850190611fbc565b5050506000908152600560205260409020805460ff19169055565b600b60205281600052604060002081815481106107b057fe5b90600052602060002001600091509150505481565b600a602052600090815260409020546001600160a01b031681565b6107e861203a565b6040805160808181019092529083906004908390839080828437600092018290525034606085015233815260096020526040902092935061082f9291508390506004612058565b5080516000908152600860205260408120546001600160a01b0316610873578151600090815260086020526040902080546001600160a01b0319163317905561095b565b81516000908152600860208181526040808420546001600160a01b039081168552600a8084528286208054336001600160a01b03199182168117909255895188528686528488205491885291855283872080549184169190921617905586518552928252808420549092168352600b905290206108f290836004612058565b5081516000908152600860209081526040808320546001600160a01b0316835260098252808320338452600b90925290912081546109309290612092565b508151600090815260086020526040902080546001600160a01b0319166001600160a01b0383161790555b505050565b6008602052600090815260409020546001600160a01b031681565b6007546001600160a01b031681565b6006546001600160a01b031681565b60006109a433610cdb565b905080156109b5576109b533610f79565b50565b600960205281600052604060002081815481106107b057fe5b33600090815260096020908152604091829020805483518184028101840190945280845260609392830182828015610a2857602002820191906000526020600020905b815481526020019060010190808311610a14575b505050505090506109b581600081518110610a3f57fe5b6020026020010151336110b8565b336000908152600e60209081526040918290208054835160026001831615610100026000190190921691909104601f81018490048402820184019094528381526060938493919291830182828015610ae65780601f10610abb57610100808354040283529160200191610ae6565b820191906000526020600020905b815481529060010190602001808311610ac957829003601f168201915b50939550505050505090565b6001546000906001600160a01b03161580610b1f5750600154610b1d906001600160a01b0316611270565b155b15610b3057610b2e6000611274565b505b600160009054906101000a90046001600160a01b03166001600160a01b03166338cc48316040518163ffffffff1660e01b8152600401602060405180830381600087803b158015610b8057600080fd5b505af1158015610b94573d6000803e3d6000fd5b505050506040513d6020811015610baa57600080fd5b50516000546001600160a01b03908116911614610c5d57600160009054906101000a90046001600160a01b03166001600160a01b03166338cc48316040518163ffffffff1660e01b8152600401602060405180830381600087803b158015610c1157600080fd5b505af1158015610c25573d6000803e3d6000fd5b505050506040513d6020811015610c3b57600080fd5b5051600080546001600160a01b0319166001600160a01b039092169190911790555b6000809054906101000a90046001600160a01b03166001600160a01b031663c281d19e6040518163ffffffff1660e01b815260040160206040518083038186803b158015610caa57600080fd5b505afa158015610cbe573d6000803e3d6000fd5b505050506040513d6020811015610cd457600080fd5b5051905090565b6001600160a01b038082166000908152600a6020908152604080832054909316808352600b8252838320805485518185028101850190965280865293949193606093830182828015610d4c57602002820191906000526020600020905b815481526020019060010190808311610d38575b5050604080516020808201835260008083526001600160a01b038c168152600e82528390208054845160026001831615610100026000190190921691909104601f81018490048402820184019095528481529798509196606096509450909250830182828015610dfd5780601f10610dd257610100808354040283529160200191610dfd565b820191906000526020600020905b815481529060010190602001808311610de057829003601f168201915b50505050509050816040516020018082805190602001908083835b60208310610e375780518252601f199092019160209182019101610e18565b6001836020036101000a03801982511681845116808217855250505050505090500191505060405160208183030381529060405280519060200120816040516020018082805190602001908083835b60208310610ea55780518252601f199092019160209182019101610e86565b6001836020036101000a038019825116818451168082178552505050505050905001915050604051602081830303815290604052805190602001201415610f365760408051600160e51b62461bcd02815260206004820152600f60248201527f4e6f20726573756c7420666f756e640000000000000000000000000000000000604482015290519081900360640190fd5b6000610f4182611284565b9050600084600181518110610f5257fe5b60200260200101519050600080905082821415610f6d575060015b98975050505050505050565b6001600160a01b038082166000908152600a6020908152604080832054909316808352600b825291839020805484518184028101840190955280855292936060939092830182828015610feb57602002820191906000526020600020905b815481526020019060010190808311610fd7575b5050506001600160a01b0385166000908152600960209081526040918290208054835181840281018401909452808452959650606095929450925083018282801561105557602002820191906000526020600020905b815481526020019060010190808311611041575b5050505050905060008260038151811061106b57fe5b6020026020010151905060008260038151811061108457fe5b6020026020010151905060006110a3828461129190919063ffffffff16565b90506110af81886112a7565b50505050505050565b306001600160a01b0316316110ea604051806040016040528060038152602001600160ea1b6215549302815250611342565b1115611140577fc4dc360d0a9c0677a3379ae0a3d81e887f761e65fdf3d7e00859d1bcd3c4738960405180806020018281038252604b815260200180612144604b913960600191505060405180910390a161126c565b600780546001600160a01b0319166001600160a01b03831617905581606061116782611591565b9050606061118d6040518060600160405280603281526020016121bb6032913983611655565b60408051808201909152601181527f292e646174612e77696e6e696e675f4944000000000000000000000000000000602082015290915060606111d08383611655565b905060006111fc604051806040016040528060038152602001600160ea1b621554930281525083611710565b600081815260056020908152604091829020805460ff19166001179055815181815260359181018290529293507fc4dc360d0a9c0677a3379ae0a3d81e887f761e65fdf3d7e00859d1bcd3c47389929182919082019061210f823960400191505060405180910390a15050505050505b5050565b3b90565b600061127e611ad4565b92915050565b600061127e826000611e3f565b6000828201838110156112a057fe5b9392505050565b6040516001600160a01b0382169083156108fc029084906000818181858888f193505050501580156112dd573d6000803e3d6000fd5b50604080516020808252601b908201527f412077696e6e657220776173206a7573742070616964206f75742100000000008183015290517fd26a1ef5c184c4e0eb2179564cc0202c6ee2f00c1b3514d54ded3d5bc598e5169181900360600190a15050565b6001546000906001600160a01b0316158061136f575060015461136d906001600160a01b0316611270565b155b156113805761137e6000611274565b505b600160009054906101000a90046001600160a01b03166001600160a01b03166338cc48316040518163ffffffff1660e01b8152600401602060405180830381600087803b1580156113d057600080fd5b505af11580156113e4573d6000803e3d6000fd5b505050506040513d60208110156113fa57600080fd5b50516000546001600160a01b039081169116146114ad57600160009054906101000a90046001600160a01b03166001600160a01b03166338cc48316040518163ffffffff1660e01b8152600401602060405180830381600087803b15801561146157600080fd5b505af1158015611475573d6000803e3d6000fd5b505050506040513d602081101561148b57600080fd5b5051600080546001600160a01b0319166001600160a01b039092169190911790555b60008054604051600160e01b63524f38890281526020600482018181528651602484015286516001600160a01b039094169463524f3889948894929384936044019290860191908190849084905b838110156115135781810151838201526020016114fb565b50505050905090810190601f1680156115405780820380516001836020036101000a031916815260200191505b5092505050602060405180830381600087803b15801561155f57600080fd5b505af1158015611573573d6000803e3d6000fd5b505050506040513d602081101561158957600080fd5b505192915050565b6060816115b957506040805180820190915260018152600160fc1b6003026020820152610535565b8160005b81156115d157600101600a820491506115bd565b6060816040519080825280601f01601f1916602001820160405280156115fe576020820181803883390190505b50905060001982015b851561164c57600a860660300160f81b8282806001900393508151811061162a57fe5b60200101906001600160f81b031916908160001a905350600a86049550611607565b50949350505050565b606082826040516020018083805190602001908083835b6020831061168b5780518252601f19909201916020918201910161166c565b51815160209384036101000a600019018019909216911617905285519190930192850191508083835b602083106116d35780518252601f1990920191602091820191016116b4565b6001836020036101000a03801982511681845116808217855250505050505090500192505050604051602081830303815290604052905092915050565b6001546000906001600160a01b0316158061173d575060015461173b906001600160a01b0316611270565b155b1561174e5761174c6000611274565b505b600160009054906101000a90046001600160a01b03166001600160a01b03166338cc48316040518163ffffffff1660e01b8152600401602060405180830381600087803b15801561179e57600080fd5b505af11580156117b2573d6000803e3d6000fd5b505050506040513d60208110156117c857600080fd5b50516000546001600160a01b0390811691161461187b57600160009054906101000a90046001600160a01b03166001600160a01b03166338cc48316040518163ffffffff1660e01b8152600401602060405180830381600087803b15801561182f57600080fd5b505af1158015611843573d6000803e3d6000fd5b505050506040513d602081101561185957600080fd5b5051600080546001600160a01b0319166001600160a01b039092169190911790555b60008054604051600160e01b63524f38890281526020600482018181528751602484015287516001600160a01b039094169363524f38899389938392604490920191908501908083838b5b838110156118de5781810151838201526020016118c6565b50505050905090810190601f16801561190b5780820380516001836020036101000a031916815260200191505b5092505050602060405180830381600087803b15801561192a57600080fd5b505af115801561193e573d6000803e3d6000fd5b505050506040513d602081101561195457600080fd5b50519050670de0b6b3a764000062030d403a020181111561197957506000905061127e565b60008054604051600160e01b63adf59f99028152600481018381526060602483019081528851606484015288516001600160a01b039094169463adf59f9994879491938b938b9391929091604481019160849091019060208701908083838b5b838110156119f15781810151838201526020016119d9565b50505050905090810190601f168015611a1e5780820380516001836020036101000a031916815260200191505b50838103825284518152845160209182019186019080838360005b83811015611a51578181015183820152602001611a39565b50505050905090810190601f168015611a7e5780820380516001836020036101000a031916815260200191505b50955050505050506020604051808303818588803b158015611a9f57600080fd5b505af1158015611ab3573d6000803e3d6000fd5b50505050506040513d6020811015611aca57600080fd5b5051949350505050565b600080611af4731d3b2638a7cc9f2cb3d298a3da7a90b67e5506ed611270565b1115611b5657600180546001600160a01b031916731d3b2638a7cc9f2cb3d298a3da7a90b67e5506ed17905560408051808201909152600b8152600160aa1b6a195d1a17db585a5b9b995d026020820152611b4e90611fad565b5060016103ff565b6000611b7573c03a2615d5efaf5f49f60b7bb6583eaec212fdf1611270565b1115611bde57600180546001600160a01b03191673c03a2615d5efaf5f49f60b7bb6583eaec212fdf117905560408051808201909152600c81527f6574685f726f707374656e3300000000000000000000000000000000000000006020820152611b4e90611fad565b6000611bfd73b7a07bcf2ba2f2703b24c0691b5278999c59ac7e611270565b1115611c5557600180546001600160a01b03191673b7a07bcf2ba2f2703b24c0691b5278999c59ac7e1790556040805180820190915260098152600160b91b6832ba342fb5b7bb30b7026020820152611b4e90611fad565b6000611c7473146500cfd35b22e4a392fe0adc06de1a1368ed48611270565b1115611cce57600180546001600160a01b03191673146500cfd35b22e4a392fe0adc06de1a1368ed4817905560408051808201909152600b8152600160a81b6a6574685f72696e6b656279026020820152611b4e90611fad565b6000611ced73a2998efd205fb9d4b4963afb70778d6354ad3a41611270565b1115611d4657600180546001600160a01b03191673a2998efd205fb9d4b4963afb70778d6354ad3a4117905560408051808201909152600a8152600160b01b696574685f676f65726c69026020820152611b4e90611fad565b6000611d65736f485c8bf6fc43ea212e93bbf8ce046c7f1cb475611270565b1115611d975750600180546001600160a01b031916736f485c8bf6fc43ea212e93bbf8ce046c7f1cb4751781556103ff565b6000611db67320e12a1f859b3feae5fb2a0a32c18f5a65555bbf611270565b1115611de85750600180546001600160a01b0319167320e12a1f859b3feae5fb2a0a32c18f5a65555bbf1781556103ff565b6000611e077351efaf4c8b3c9afbd5ab9f4bbc82784ab6ef8faa611270565b1115611e395750600180546001600160a01b0319167351efaf4c8b3c9afbd5ab9f4bbc82784ab6ef8faa1781556103ff565b50600090565b6000828180805b8351811015611f95576030848281518110611e5d57fe5b602001015160f81c60f81b60f81c60ff1610158015611e9957506039848281518110611e8557fe5b602001015160f81c60f81b60f81c60ff1611155b15611ee5578115611eb65785611eae57611f95565b600019909501945b600a830292506030848281518110611eca57fe5b602001015160f81c60f81b60f81c60ff160383019250611f8d565b838181518110611ef157fe5b602001015160f81c60f81b60f81c60ff16602e1415611f53578115611f4a57604051600160e51b62461bcd02815260040180806020018281038252602c8152602001806121ed602c913960400191505060405180910390fd5b60019150611f8d565b604051600160e51b62461bcd02815260040180806020018281038252602c81526020018061218f602c913960400191505060405180910390fd5b600101611e46565b50841561164c5784600a0a8202915050949350505050565b805161126c9060029060208401905b828054600181600116156101000203166002900490600052602060002090601f016020900481019282601f10611ffd57805160ff191683800117855561202a565b8280016001018555821561202a579182015b8281111561202a57825182559160200191906001019061200f565b506120369291506120d2565b5090565b60405180608001604052806004906020820280388339509192915050565b82805482825590600052602060002090810192821561202a579160200282018281111561202a57825182559160200191906001019061200f565b82805482825590600052602060002090810192821561202a5760005260206000209182015b8281111561202a5782548255916001019190600101906120b7565b6103ff91905b8082111561203657600081556001016120d856fe6d73672e73656e64657220213d2070726f7661626c655f636241646472657373282950726f7661626c65207175657279207761732073656e742c207374616e64696e6720627920666f722074686520616e737765722e2e50726f7661626c6520717565727920776173204e4f542073656e742c20706c656173652061646420736f6d652045544820746f20636f76657220666f7220746865207175657279206665654e6f6e2d6e756d6572616c2063686172616374657220656e636f756e746572656420696e20737472696e67216a736f6e2868747470733a2f2f6261642d66726f672d31332e6c6f63616c74756e6e656c2e6d652f636f6d706c657465642f4d6f7265207468616e206f6e6520646563696d616c20656e636f756e746572656420696e20737472696e6721a165627a7a72305820899320c2086e688109e0acf8a0573ea7c6c1a7d829d2f4e810b4b7a996abbdd50029",
  "source": "pragma solidity ^0.5.0;\n\nimport \"./SafeMath.sol\";\nimport \"./usingProvable.sol\";\n\ncontract Betting is usingProvable {\n\n    mapping(bytes32 => bool) validIDs;\n\n    using SafeMath for uint256;\n    using SafeMath32 for uint32;\n    using SafeMath16 for uint16;\n\n    address public owner;\n    address public current_query_address;\n\n    event LogResult(string result);\n    event LogNewProvableQuery(string description);\n    event LogPayout(string payout);\n\n    mapping(uint => address) public gameID_to_address;\n    mapping(address => uint[]) public address_to_bet;\n    mapping(address => address) public matched_bet_addresses;\n    mapping(address => uint[]) public matching_bets;\n\n    string[1] results;\n    mapping(string => address) result_to_address;\n    mapping(address => string) address_to_result;\n\n    constructor() public {\n    //  provable_setProof(proofType_TLSNotary | proofStorage_IPFS);\n        OAR = OracleAddrResolverI(0x6f485C8BF6fc43eA212E93BBF8ce046C7f1cb475);\n        owner = msg.sender;\n    }\n\n    function get_owner() public view returns (address) {\n        address _owner = owner;\n        return _owner;\n    }\n\n    // Will pass in uint32[] with game_ID, team1_id, opponent_id, bet_amount\n    function createBet(uint[4] calldata _bet) external payable {\n        // add msg.value to end of bet array\n        uint[4] memory bet = _bet;\n        bet[3] = msg.value;\n\n\n        // map address to bet array\n        address_to_bet[msg.sender] = bet;\n\n        // zeros is expected result from mapping gameID_to_address[game_ID] if\n        // there is nothing currently mapped to that game_ID\n        address zeros = 0x0000000000000000000000000000000000000000;\n        // if gameID_to_address[game_ID] is empty (no bets have been made for this gameID)\n        // then we map the game_ID to the sender's address\n\n        // if gameID_to_address[game_ID] IS mapped to an address, this means someone has\n        // placed a bet for this game.  In this case, we will map the existing bet address\n        // to the new confirming bet address (msg.sender) so the 2 addresses are linked.\n        // Then we will map the original bet address (bet1) to the new matching bet (_bet)\n        // and we will map the matching bet address (_bet) to the original bet (bet1).\n\n        // We now have the following mappings:\n\n        // gameID_to_address[gameID] == zeros;\n        // address_to_bet[bet1_sender] == bet1;\n        // address_to_bet[bet2_sender] == bet2;\n        // matched_bet_addresses[bet1_sender] == bet2_sender;\n        // matched_bet_addresses[bet2_sender] == bet1_sender;\n        // matching_bets[bet1_sender] == _bet (bet2);\n        // matching_bets[bet2_sender] == bet1;\n\n        // When somebody calls query, winning_Team_ID string will be mapped\n        // to the caller's address.  So, let's say bet2 sender calls query:\n\n        // mapping result_to_address[\"winning_ID\"] = bet2_sender;\n        // mapping address_to_result[bet2_sender] = result;\n        // mapping address_to_result[bet1_sender] = result;\n        // with current information we can use bet2_sender to:\n\n        // get matching bet1 senders address with matched_bet_addresses[bet1_sender_address]\n        // get bet1 with address_to_bet[bet1];\n        // get bet2 with address_to_bet[bet2];\n        // get winning_Team_ID with address_to_result[bet2_sender_address]\n        // get winning_Team_ID with address_to_result[bet1_sender_address]\n        // bet1_sender known: true\n        // bet2_sender_known: true\n        // bet1_known (and thereby, the gameID): true\n        // bet2_known: true\n        // gameID known: true\n        // winning_team_id known: true\n\n        if(gameID_to_address[bet[0]] == zeros) {\n            gameID_to_address[bet[0]] = msg.sender;\n        } else {\n            matched_bet_addresses[gameID_to_address[bet[0]]] = msg.sender;\n            matched_bet_addresses[msg.sender] = gameID_to_address[bet[0]];\n            matching_bets[gameID_to_address[bet[0]]] = bet;\n            matching_bets[msg.sender] = address_to_bet[gameID_to_address[bet[0]]];\n            gameID_to_address[bet[0]] = zeros;\n        }\n    }\n\n   function claimWin() public {\n       bool won = didWin(msg.sender);\n\n        if(won) {\n            get_payout_amount(msg.sender);\n        }\n    }\n\n    function transfer_payout(uint payout, address payable winner) private {\n        winner.transfer(payout);\n        // require(winner.transfer(payout), \"transfer failed\");\n        emit LogPayout(\"A winner was just paid out!\");\n    }\n\n    function get_payout_amount(address payable winner) private {\n        address matched_bet_addr = matched_bet_addresses[winner];\n        uint[] memory winner_bet = matching_bets[matched_bet_addr];\n        uint[] memory matching_bet = address_to_bet[matched_bet_addr];\n\n        uint bet1_amt = winner_bet[3];\n        uint bet2_amt = matching_bet[3];\n        uint payout = bet1_amt.add(bet2_amt);\n        transfer_payout(payout, winner);\n    }\n\n    function didWin(address payable sender) private view returns (bool) {\n        address matched_bet_addr = matched_bet_addresses[sender];\n        uint[] memory caller_bet = matching_bets[matched_bet_addr];\n        string memory empty = \"\";\n        string memory result = address_to_result[sender];\n        // require(result != empty);\n        require(keccak256(abi.encodePacked((result))) != keccak256(abi.encodePacked((empty))), \"No result found\");\n        uint int_result = safeParseInt(result);\n\n        uint caller_team_id = caller_bet[1];\n\n        bool caller_won = false;\n\n        if(caller_team_id == int_result) {\n            caller_won = true;\n        }\n\n        return caller_won;\n    }\n\n    function get_addr_to_result() public view returns (string memory) {\n        string memory result = address_to_result[msg.sender];\n        return result;\n    }\n\n    function append(string memory a, string memory b) private pure returns (string memory) {\n        return string(abi.encodePacked(a, b));\n    }\n\n    function __callback(bytes32 myid, string memory result) public {\n        if(!validIDs[myid]) revert(\"Invalid ID\");\n        if (msg.sender != provable_cbAddress()) revert(\"msg.sender != provable_cbAddress()\");\n        emit LogResult(result);\n        results[0] = result;\n        result_to_address[result] = current_query_address;\n        address matching_address = matched_bet_addresses[current_query_address];\n        address_to_result[current_query_address] = result;\n        address_to_result[matching_address] = result;\n        delete validIDs[myid];\n    }\n\n    function get_result(address _address) public view returns (string memory) {\n        string memory result = address_to_result[_address];\n        return result;\n    }\n\n    function get_string_to_address() public view returns (address) {\n        address result = result_to_address[results[0]];\n        return result;\n    }\n\n    function query_win() external {\n        uint[] memory bet = address_to_bet[msg.sender];\n        query(bet[0], msg.sender);\n    }\n\n    function query(uint _game_ID, address _sender) private {\n        if (provable_getPrice(\"URL\") > address(this).balance) {\n          emit LogNewProvableQuery(\"Provable query was NOT sent, please add some ETH to cover for the query fee\");\n        } else {\n            current_query_address = _sender;\n            uint big_game_ID = uint(_game_ID);\n            string memory game_ID_str = uint2str(big_game_ID);\n            string memory _url_start = append(\"json(https://bad-frog-13.localtunnel.me/completed/\", game_ID_str);\n            string memory _url_end = \").data.winning_ID\";\n            string memory url = append(_url_start, _url_end);\n\n            bytes32 queryId = provable_query(\"URL\", url);\n            validIDs[queryId] = true;\n            emit LogNewProvableQuery(\"Provable query was sent, standing by for the answer..\");\n        }\n    }\n\n\n\n\n\n}\n",
  "sourcePath": "/home/jragard/nba_bet_react/contracts/Betting.sol",
  "compiler": {
    "name": "solc",
    "version": "0.5.8+commit.23d335f2.Emscripten.clang"
  },
  "schemaVersion": "3.0.16",
  "updatedAt": "2019-09-28T03:46:41.195Z",
  "devdoc": {
    "methods": {}
  },
  "userdoc": {
    "methods": {}
  }
}